{
  "address": "0x0b5e8F1D2a927377BAc4b6Ea107347E90e3218C7",
  "abi": [
    {
      "inputs": [
        {
          "internalType": "address",
          "name": "_owner",
          "type": "address"
        }
      ],
      "stateMutability": "payable",
      "type": "constructor"
    },
    {
      "anonymous": false,
      "inputs": [
        {
          "indexed": true,
          "internalType": "address",
          "name": "player",
          "type": "address"
        },
        {
          "indexed": false,
          "internalType": "string",
          "name": "questionId",
          "type": "string"
        },
        {
          "indexed": false,
          "internalType": "string",
          "name": "answerId",
          "type": "string"
        },
        {
          "indexed": false,
          "internalType": "bool",
          "name": "correct",
          "type": "bool"
        },
        {
          "indexed": false,
          "internalType": "uint256",
          "name": "reward",
          "type": "uint256"
        }
      ],
      "name": "AnswerSubmitted",
      "type": "event"
    },
    {
      "inputs": [],
      "name": "addToPot",
      "outputs": [],
      "stateMutability": "payable",
      "type": "function"
    },
    {
      "inputs": [],
      "name": "owner",
      "outputs": [
        {
          "internalType": "address",
          "name": "",
          "type": "address"
        }
      ],
      "stateMutability": "view",
      "type": "function"
    },
    {
      "inputs": [
        {
          "internalType": "string",
          "name": "questionId",
          "type": "string"
        },
        {
          "internalType": "string",
          "name": "answerId",
          "type": "string"
        },
        {
          "internalType": "bool",
          "name": "isCorrect",
          "type": "bool"
        }
      ],
      "name": "submitAnswer",
      "outputs": [],
      "stateMutability": "nonpayable",
      "type": "function"
    },
    {
      "inputs": [],
      "name": "totalPot",
      "outputs": [
        {
          "internalType": "uint256",
          "name": "",
          "type": "uint256"
        }
      ],
      "stateMutability": "view",
      "type": "function"
    },
    {
      "inputs": [],
      "name": "withdraw",
      "outputs": [],
      "stateMutability": "nonpayable",
      "type": "function"
    },
    {
      "stateMutability": "payable",
      "type": "receive"
    }
  ],
  "transactionHash": "0x840e8ca1244c22d510baf95dd33ea9c295eaa45bd74f3964256bf5952e7eb9ed",
  "args": [
    "0xcdF95c5Af1fAdFC966e37cbFD09Fc5C2E8879820"
  ],
  "numDeployments": 2,
  "solcInputHash": "1f952df3586f7a1ab105381088c56ce1",
  "bytecode": "0x60806040526040516105953803806105958339810160408190526020916048565b600080546001600160a01b0319166001600160a01b0392909216919091179055346001556076565b600060208284031215605957600080fd5b81516001600160a01b0381168114606f57600080fd5b9392505050565b610510806100856000396000f3fe60806040526004361061004e5760003560e01c806317ebf6ae1461007257806324b570a91461007c5780633ccfd60b146100a5578063882ac14d146100ba5780638da5cb5b146100da57600080fd5b3661006d573460016000828254610065919061034f565b925050819055005b600080fd5b61007a610112565b005b34801561008857600080fd5b5061009260015481565b6040519081526020015b60405180910390f35b3480156100b157600080fd5b5061007a61012b565b3480156100c657600080fd5b5061007a6100d53660046103b1565b610215565b3480156100e657600080fd5b506000546100fa906001600160a01b031681565b6040516001600160a01b03909116815260200161009c565b3460016000828254610124919061034f565b9091555050565b6000546001600160a01b031633146101765760405162461bcd60e51b81526020600482015260096024820152682737ba1037bbb732b960b91b60448201526064015b60405180910390fd5b6000600181905580546040514792916001600160a01b03169083908381818185875af1925050503d80600081146101c9576040519150601f19603f3d011682016040523d82523d6000602084013e6101ce565b606091505b50509050806102115760405162461bcd60e51b815260206004820152600f60248201526e15da5d1a191c985dc819985a5b1959608a1b604482015260640161016d565b5050565b600081156102e657600a60015461022c919061043f565b905060008111801561023e5750804710155b156102e65780600160008282546102559190610461565b9091555050604051600090339083908381818185875af1925050503d806000811461029c576040519150601f19603f3d011682016040523d82523d6000602084013e6102a1565b606091505b50509050806102e45760405162461bcd60e51b815260206004820152600f60248201526e151c985b9cd9995c8819985a5b1959608a1b604482015260640161016d565b505b336001600160a01b03167f2ebf238ed5748f0f8851354ee5c0eafec02edcc87696dca5db99ca421f0846c08787878787876040516103299695949392919061049d565b60405180910390a2505050505050565b634e487b7160e01b600052601160045260246000fd5b8082018082111561036257610362610339565b92915050565b60008083601f84011261037a57600080fd5b50813567ffffffffffffffff81111561039257600080fd5b6020830191508360208285010111156103aa57600080fd5b9250929050565b6000806000806000606086880312156103c957600080fd5b853567ffffffffffffffff8111156103e057600080fd5b6103ec88828901610368565b909650945050602086013567ffffffffffffffff81111561040c57600080fd5b61041888828901610368565b9094509250506040860135801515811461043157600080fd5b809150509295509295909350565b60008261045c57634e487b7160e01b600052601260045260246000fd5b500490565b8181038181111561036257610362610339565b81835281816020850137506000828201602090810191909152601f909101601f19169091010190565b6080815260006104b160808301888a610474565b82810360208401526104c4818789610474565b941515604084015250506060015294935050505056fea2646970667358221220a8009a514c7d080c9b1f051890e7e643ed122ded7db4f4bccd8269a53cd8b42c64736f6c634300081e0033",
  "devdoc": {
    "kind": "dev",
    "methods": {},
    "version": 1
  },
  "userdoc": {
    "kind": "user",
    "methods": {},
    "version": 1
  },
  "storageLayout": {
    "storage": [
      {
        "astId": 3,
        "contract": "contracts/YourContract.sol:YourContract",
        "label": "owner",
        "offset": 0,
        "slot": "0",
        "type": "t_address"
      },
      {
        "astId": 5,
        "contract": "contracts/YourContract.sol:YourContract",
        "label": "totalPot",
        "offset": 0,
        "slot": "1",
        "type": "t_uint256"
      }
    ],
    "types": {
      "t_address": {
        "encoding": "inplace",
        "label": "address",
        "numberOfBytes": "20"
      },
      "t_uint256": {
        "encoding": "inplace",
        "label": "uint256",
        "numberOfBytes": "32"
      }
    }
  }
}